{
    "_format": "hh-sol-artifact-1",
    "contractName": "upload2",
    "sourceName": "contracts/upload2.sol",
    "abi": [
        {
            "inputs": [],
            "stateMutability": "nonpayable",
            "type": "constructor"
        },
        {
            "inputs": [
                {
                    "internalType": "string",
                    "name": "items",
                    "type": "string"
                }
            ],
            "name": "buy",
            "outputs": [],
            "stateMutability": "payable",
            "type": "function"
        },
        {
            "inputs": [],
            "name": "getMemos",
            "outputs": [
                {
                    "components": [
                        {
                            "internalType": "uint256",
                            "name": "timestamp",
                            "type": "uint256"
                        },
                        {
                            "internalType": "string",
                            "name": "items",
                            "type": "string"
                        }
                    ],
                    "internalType": "struct upload2.Memo[]",
                    "name": "",
                    "type": "tuple[]"
                }
            ],
            "stateMutability": "view",
            "type": "function"
        }
    ],
    "bytecode": "0x608060405234801561001057600080fd5b5033600160006101000a81548173ffffffffffffffffffffffffffffffffffffffff021916908373ffffffffffffffffffffffffffffffffffffffff16021790555061096e806100616000396000f3fe6080604052600436106100295760003560e01c8063492cc7691461002e578063865c51721461004a575b600080fd5b610048600480360381019061004391906103db565b610075565b005b34801561005657600080fd5b5061005f610186565b60405161006c91906105bb565b60405180910390f35b600034116100b8576040517f08c379a00000000000000000000000000000000000000000000000000000000081526004016100af9061063a565b60405180910390fd5b600160009054906101000a900473ffffffffffffffffffffffffffffffffffffffff1673ffffffffffffffffffffffffffffffffffffffff166108fc349081150290604051600060405180830381858888f19350505050158015610120573d6000803e3d6000fd5b50600060405180604001604052804281526020018381525090806001815401808255809150506001900390600052602060002090600202016000909190919091506000820151816000015560208201518160010190816101809190610866565b50505050565b60606000805480602002602001604051908101604052809291908181526020016000905b828210156102785783829060005260206000209060020201604051806040016040529081600082015481526020016001820180546101e790610689565b80601f016020809104026020016040519081016040528092919081815260200182805461021390610689565b80156102605780601f1061023557610100808354040283529160200191610260565b820191906000526020600020905b81548152906001019060200180831161024357829003601f168201915b505050505081525050815260200190600101906101aa565b50505050905090565b6000604051905090565b600080fd5b600080fd5b600080fd5b600080fd5b6000601f19601f8301169050919050565b7f4e487b7100000000000000000000000000000000000000000000000000000000600052604160045260246000fd5b6102e88261029f565b810181811067ffffffffffffffff82111715610307576103066102b0565b5b80604052505050565b600061031a610281565b905061032682826102df565b919050565b600067ffffffffffffffff821115610346576103456102b0565b5b61034f8261029f565b9050602081019050919050565b82818337600083830152505050565b600061037e6103798461032b565b610310565b90508281526020810184848401111561039a5761039961029a565b5b6103a584828561035c565b509392505050565b600082601f8301126103c2576103c1610295565b5b81356103d284826020860161036b565b91505092915050565b6000602082840312156103f1576103f061028b565b5b600082013567ffffffffffffffff81111561040f5761040e610290565b5b61041b848285016103ad565b91505092915050565b600081519050919050565b600082825260208201905092915050565b6000819050602082019050919050565b6000819050919050565b61046381610450565b82525050565b600081519050919050565b600082825260208201905092915050565b60005b838110156104a3578082015181840152602081019050610488565b60008484015250505050565b60006104ba82610469565b6104c48185610474565b93506104d4818560208601610485565b6104dd8161029f565b840191505092915050565b6000604083016000830151610500600086018261045a565b506020830151848203602086015261051882826104af565b9150508091505092915050565b600061053183836104e8565b905092915050565b6000602082019050919050565b600061055182610424565b61055b818561042f565b93508360208202850161056d85610440565b8060005b858110156105a9578484038952815161058a8582610525565b945061059583610539565b925060208a01995050600181019050610571565b50829750879550505050505092915050565b600060208201905081810360008301526105d58184610546565b905092915050565b600082825260208201905092915050565b7f506c65617365207061792067726561746572207468616e203020657468657200600082015250565b6000610624601f836105dd565b915061062f826105ee565b602082019050919050565b6000602082019050818103600083015261065381610617565b9050919050565b7f4e487b7100000000000000000000000000000000000000000000000000000000600052602260045260246000fd5b600060028204905060018216806106a157607f821691505b6020821081036106b4576106b361065a565b5b50919050565b60008190508160005260206000209050919050565b60006020601f8301049050919050565b600082821b905092915050565b60006008830261071c7fffffffffffffffffffffffffffffffffffffffffffffffffffffffffffffffff826106df565b61072686836106df565b95508019841693508086168417925050509392505050565b6000819050919050565b600061076361075e61075984610450565b61073e565b610450565b9050919050565b6000819050919050565b61077d83610748565b6107916107898261076a565b8484546106ec565b825550505050565b600090565b6107a6610799565b6107b1818484610774565b505050565b5b818110156107d5576107ca60008261079e565b6001810190506107b7565b5050565b601f82111561081a576107eb816106ba565b6107f4846106cf565b81016020851015610803578190505b61081761080f856106cf565b8301826107b6565b50505b505050565b600082821c905092915050565b600061083d6000198460080261081f565b1980831691505092915050565b6000610856838361082c565b9150826002028217905092915050565b61086f82610469565b67ffffffffffffffff811115610888576108876102b0565b5b6108928254610689565b61089d8282856107d9565b600060209050601f8311600181146108d057600084156108be578287015190505b6108c8858261084a565b865550610930565b601f1984166108de866106ba565b60005b82811015610906578489015182556001820191506020850194506020810190506108e1565b86831015610923578489015161091f601f89168261082c565b8355505b6001600288020188555050505b50505050505056fea2646970667358221220ebe5c82c81f39f965a5e1458591dd95547b630a049004704b9c5a5ae5cad5f1664736f6c63430008110033",
    "linkReferences": {},
    "deployedLinkReferences": {}
}